{
  "_format": "hh-sol-artifact-1",
  "contractName": "ABC",
  "sourceName": "contracts/blockr.sol",
  "abi": [
    {
      "inputs": [
        {
          "internalType": "bytes32",
          "name": "GHI",
          "type": "bytes32"
        }
      ],
      "name": "DEF",
      "outputs": [
        {
          "internalType": "string",
          "name": "",
          "type": "string"
        }
      ],
      "stateMutability": "view",
      "type": "function"
    }
  ],
  "bytecode": "0x608060405234801561001057600080fd5b50610311806100206000396000f3fe608060405234801561001057600080fd5b506004361061002b5760003560e01c8063f2ab49b114610030575b600080fd5b61004a60048036038101906100459190610109565b610060565b60405161005791906101ab565b60405180910390f35b606060006005436100719190610209565b4090508083146100b6576040517f08c379a00000000000000000000000000000000000000000000000000000000081526004016100ad906101cd565b60405180910390fd5b6040518060400160405280601b81526020017f446f484354467b696e7465726163745f775f636f6e74726163747d0000000000815250915050919050565b600081359050610103816102c4565b92915050565b60006020828403121561011b57600080fd5b6000610129848285016100f4565b91505092915050565b600061013d826101ed565b61014781856101f8565b9350610157818560208601610251565b610160816102b3565b840191505092915050565b60006101786002836101f8565b91507f3a440000000000000000000000000000000000000000000000000000000000006000830152602082019050919050565b600060208201905081810360008301526101c58184610132565b905092915050565b600060208201905081810360008301526101e68161016b565b9050919050565b600081519050919050565b600082825260208201905092915050565b600061021482610247565b915061021f83610247565b92508282101561023257610231610284565b5b828203905092915050565b6000819050919050565b6000819050919050565b60005b8381101561026f578082015181840152602081019050610254565b8381111561027e576000848401525b50505050565b7f4e487b7100000000000000000000000000000000000000000000000000000000600052601160045260246000fd5b6000601f19601f8301169050919050565b6102cd8161023d565b81146102d857600080fd5b5056fea26469706673582212204b835e0e84c8387812030d4bd54a8db75c1f1b01f939ce1eb0e3a95e176950c264736f6c63430008000033",
  "linkReferences": {},
  "deployedLinkReferences": {}
}