{"contracts/blockr.sol":{"ABC":{"abi":[{"inputs":[{"internalType":"bytes32","name":"GHI","type":"bytes32"}],"name":"DEF","outputs":[{"internalType":"string","name":"","type":"string"}],"stateMutability":"view","type":"function"}],"evm":{"bytecode":{"linkReferences":{},"object":"608060405234801561001057600080fd5b50610311806100206000396000f3fe608060405234801561001057600080fd5b506004361061002b5760003560e01c8063f2ab49b114610030575b600080fd5b61004a60048036038101906100459190610109565b610060565b60405161005791906101ab565b60405180910390f35b606060006005436100719190610209565b4090508083146100b6576040517f08c379a00000000000000000000000000000000000000000000000000000000081526004016100ad906101cd565b60405180910390fd5b6040518060400160405280601b81526020017f446f484354467b696e7465726163745f775f636f6e74726163747d0000000000815250915050919050565b600081359050610103816102c4565b92915050565b60006020828403121561011b57600080fd5b6000610129848285016100f4565b91505092915050565b600061013d826101ed565b61014781856101f8565b9350610157818560208601610251565b610160816102b3565b840191505092915050565b60006101786002836101f8565b91507f3a440000000000000000000000000000000000000000000000000000000000006000830152602082019050919050565b600060208201905081810360008301526101c58184610132565b905092915050565b600060208201905081810360008301526101e68161016b565b9050919050565b600081519050919050565b600082825260208201905092915050565b600061021482610247565b915061021f83610247565b92508282101561023257610231610284565b5b828203905092915050565b6000819050919050565b6000819050919050565b60005b8381101561026f578082015181840152602081019050610254565b8381111561027e576000848401525b50505050565b7f4e487b7100000000000000000000000000000000000000000000000000000000600052601160045260246000fd5b6000601f19601f8301169050919050565b6102cd8161023d565b81146102d857600080fd5b5056fea26469706673582212204b835e0e84c8387812030d4bd54a8db75c1f1b01f939ce1eb0e3a95e176950c264736f6c63430008000033","opcodes":"PUSH1 0x80 PUSH1 0x40 MSTORE CALLVALUE DUP1 ISZERO PUSH2 0x10 JUMPI PUSH1 0x0 DUP1 REVERT JUMPDEST POP PUSH2 0x311 DUP1 PUSH2 0x20 PUSH1 0x0 CODECOPY PUSH1 0x0 RETURN INVALID PUSH1 0x80 PUSH1 0x40 MSTORE CALLVALUE DUP1 ISZERO PUSH2 0x10 JUMPI PUSH1 0x0 DUP1 REVERT JUMPDEST POP PUSH1 0x4 CALLDATASIZE LT PUSH2 0x2B JUMPI PUSH1 0x0 CALLDATALOAD PUSH1 0xE0 SHR DUP1 PUSH4 0xF2AB49B1 EQ PUSH2 0x30 JUMPI JUMPDEST PUSH1 0x0 DUP1 REVERT JUMPDEST PUSH2 0x4A PUSH1 0x4 DUP1 CALLDATASIZE SUB DUP2 ADD SWAP1 PUSH2 0x45 SWAP2 SWAP1 PUSH2 0x109 JUMP JUMPDEST PUSH2 0x60 JUMP JUMPDEST PUSH1 0x40 MLOAD PUSH2 0x57 SWAP2 SWAP1 PUSH2 0x1AB JUMP JUMPDEST PUSH1 0x40 MLOAD DUP1 SWAP2 SUB SWAP1 RETURN JUMPDEST PUSH1 0x60 PUSH1 0x0 PUSH1 0x5 NUMBER PUSH2 0x71 SWAP2 SWAP1 PUSH2 0x209 JUMP JUMPDEST BLOCKHASH SWAP1 POP DUP1 DUP4 EQ PUSH2 0xB6 JUMPI PUSH1 0x40 MLOAD PUSH32 0x8C379A000000000000000000000000000000000000000000000000000000000 DUP2 MSTORE PUSH1 0x4 ADD PUSH2 0xAD SWAP1 PUSH2 0x1CD JUMP JUMPDEST PUSH1 0x40 MLOAD DUP1 SWAP2 SUB SWAP1 REVERT JUMPDEST PUSH1 0x40 MLOAD DUP1 PUSH1 0x40 ADD PUSH1 0x40 MSTORE DUP1 PUSH1 0x1B DUP2 MSTORE PUSH1 0x20 ADD PUSH32 0x446F484354467B696E7465726163745F775F636F6E74726163747D0000000000 DUP2 MSTORE POP SWAP2 POP POP SWAP2 SWAP1 POP JUMP JUMPDEST PUSH1 0x0 DUP2 CALLDATALOAD SWAP1 POP PUSH2 0x103 DUP2 PUSH2 0x2C4 JUMP JUMPDEST SWAP3 SWAP2 POP POP JUMP JUMPDEST PUSH1 0x0 PUSH1 0x20 DUP3 DUP5 SUB SLT ISZERO PUSH2 0x11B JUMPI PUSH1 0x0 DUP1 REVERT JUMPDEST PUSH1 0x0 PUSH2 0x129 DUP5 DUP3 DUP6 ADD PUSH2 0xF4 JUMP JUMPDEST SWAP2 POP POP SWAP3 SWAP2 POP POP JUMP JUMPDEST PUSH1 0x0 PUSH2 0x13D DUP3 PUSH2 0x1ED JUMP JUMPDEST PUSH2 0x147 DUP2 DUP6 PUSH2 0x1F8 JUMP JUMPDEST SWAP4 POP PUSH2 0x157 DUP2 DUP6 PUSH1 0x20 DUP7 ADD PUSH2 0x251 JUMP JUMPDEST PUSH2 0x160 DUP2 PUSH2 0x2B3 JUMP JUMPDEST DUP5 ADD SWAP2 POP POP SWAP3 SWAP2 POP POP JUMP JUMPDEST PUSH1 0x0 PUSH2 0x178 PUSH1 0x2 DUP4 PUSH2 0x1F8 JUMP JUMPDEST SWAP2 POP PUSH32 0x3A44000000000000000000000000000000000000000000000000000000000000 PUSH1 0x0 DUP4 ADD MSTORE PUSH1 0x20 DUP3 ADD SWAP1 POP SWAP2 SWAP1 POP JUMP JUMPDEST PUSH1 0x0 PUSH1 0x20 DUP3 ADD SWAP1 POP DUP2 DUP2 SUB PUSH1 0x0 DUP4 ADD MSTORE PUSH2 0x1C5 DUP2 DUP5 PUSH2 0x132 JUMP JUMPDEST SWAP1 POP SWAP3 SWAP2 POP POP JUMP JUMPDEST PUSH1 0x0 PUSH1 0x20 DUP3 ADD SWAP1 POP DUP2 DUP2 SUB PUSH1 0x0 DUP4 ADD MSTORE PUSH2 0x1E6 DUP2 PUSH2 0x16B JUMP JUMPDEST SWAP1 POP SWAP2 SWAP1 POP JUMP JUMPDEST PUSH1 0x0 DUP2 MLOAD SWAP1 POP SWAP2 SWAP1 POP JUMP JUMPDEST PUSH1 0x0 DUP3 DUP3 MSTORE PUSH1 0x20 DUP3 ADD SWAP1 POP SWAP3 SWAP2 POP POP JUMP JUMPDEST PUSH1 0x0 PUSH2 0x214 DUP3 PUSH2 0x247 JUMP JUMPDEST SWAP2 POP PUSH2 0x21F DUP4 PUSH2 0x247 JUMP JUMPDEST SWAP3 POP DUP3 DUP3 LT ISZERO PUSH2 0x232 JUMPI PUSH2 0x231 PUSH2 0x284 JUMP JUMPDEST JUMPDEST DUP3 DUP3 SUB SWAP1 POP SWAP3 SWAP2 POP POP JUMP JUMPDEST PUSH1 0x0 DUP2 SWAP1 POP SWAP2 SWAP1 POP JUMP JUMPDEST PUSH1 0x0 DUP2 SWAP1 POP SWAP2 SWAP1 POP JUMP JUMPDEST PUSH1 0x0 JUMPDEST DUP4 DUP2 LT ISZERO PUSH2 0x26F JUMPI DUP1 DUP3 ADD MLOAD DUP2 DUP5 ADD MSTORE PUSH1 0x20 DUP2 ADD SWAP1 POP PUSH2 0x254 JUMP JUMPDEST DUP4 DUP2 GT ISZERO PUSH2 0x27E JUMPI PUSH1 0x0 DUP5 DUP5 ADD MSTORE JUMPDEST POP POP POP POP JUMP JUMPDEST PUSH32 0x4E487B7100000000000000000000000000000000000000000000000000000000 PUSH1 0x0 MSTORE PUSH1 0x11 PUSH1 0x4 MSTORE PUSH1 0x24 PUSH1 0x0 REVERT JUMPDEST PUSH1 0x0 PUSH1 0x1F NOT PUSH1 0x1F DUP4 ADD AND SWAP1 POP SWAP2 SWAP1 POP JUMP JUMPDEST PUSH2 0x2CD DUP2 PUSH2 0x23D JUMP JUMPDEST DUP2 EQ PUSH2 0x2D8 JUMPI PUSH1 0x0 DUP1 REVERT JUMPDEST POP JUMP INVALID LOG2 PUSH5 0x6970667358 0x22 SLT KECCAK256 0x4B DUP4 0x5E 0xE DUP5 0xC8 CODESIZE PUSH25 0x12030D4BD54A8DB75C1F1B01F939CE1EB0E3A95E176950C264 PUSH20 0x6F6C634300080000330000000000000000000000 "},"methodIdentifiers":{"DEF(bytes32)":"f2ab49b1"}}}}}